:020000040802F0
:1000000000000320F91C0208A91A0208AF1A02080E
:10001000B51A0208BB1A0208C11A02080000000043
:10002000000000000000000000000000C71A0208E5
:10003000D51A020800000000E31A0208F11A0208AB
:10004000491D0208491D0208491D0208491D0208F0
:10005000491D0208491D0208FF1A0208491D02082D
:10006000491D0208491D0208491D0208491D0208D0
:10007000491D0208491D0208491D0208491D0208C0
:10008000491D0208491D0208491D0208491D0208B0
:10009000491D0208491D0208491D0208491D0208A0
:1000A000491D0208491D0208491D0208491D020890
:1000B000491D0208491D0208491D0208491D020880
:1000C000491D0208491D0208491D0208491D020870
:1000D000491D0208491D0208491D0208491D020860
:1000E000491D0208491D0208491D0208491D020850
:1000F000491D0208491D0208491D0208491D020840
:10010000491D0208491D0208491D0208491D02082F
:10011000491D02080D1B0208211B0208491D020887
:10012000491D0208491D0208491D0208491D02080F
:10013000491D0208491D0208491D0208491D0208FF
:10014000491D0208491D0208491D0208491D0208EF
:10015000491D0208491D0208491D0208491D0208DF
:10016000491D0208491D0208491D0208491D0208CF
:10017000491D0208351B0208491D02080000000045
:10018000491D0208491D0208491D0208491D0208AF
:10019000491D0208491D0208491D0208491D02089F
:0C01A000491B0208491D02085D1B0208F3
:1001B00010B5054C237833B9044B13B10448AFF3A1
:1001C00000800123237010BDE0000020000000002B
:1001D00058E9020808B5034B1BB103490348AFF3C4
:1001E000008008BD00000000E400002058E902087B
:1001F00001F0FF01102A2BDB10F0070F08D010F8D8
:10020000013B013A8B422DD010F0070F42B3F6D1DB
:10021000F0B441EA012141EA014122F007047FF0F4
:1002200000070023F0E80256083C85EA010586EA4B
:10023000010685FA47F5A3FA87F586FA47F6A5FA87
:1002400087F68EB9EED1F0BC01F0FF0102F0070293
:1002500032B110F8013B013A83EA010313B1F8D13E
:100260000020704701387047002D06BF354603381F
:10027000073815F0010F07D1013015F4807F02BF58
:10028000013015F4C03F0130F0BC0138704700BFA9
:1002900053B94AB9002908BF00281CBF4FF0FF31ED
:1002A0004FF0FF3000F074B9ADF1080C6DE904CEE9
:1002B00000F006F8DDF804E0DDE9022304B0704741
:1002C0002DE9F047089D04468E46002B4DD18A4209
:1002D000944669D9B2FA82F252B101FA02F3C2F13C
:1002E000200120FA01F10CFA02FC41EA030E9440CD
:1002F0004FEA1C48210CBEFBF8F61FFA8CF708FBEE
:1003000016E341EA034306FB07F199420AD91CEBC5
:10031000030306F1FF3080F01F81994240F21C81F7
:10032000023E63445B1AA4B2B3FBF8F008FB10333F
:1003300044EA034400FB07F7A7420AD91CEB040474
:1003400000F1FF3380F00A81A74240F20781644444
:10035000023840EA0640E41B00261DB1D4400023C9
:10036000C5E900433146BDE8F0878B4209D9002D2D
:1003700000F0EF800026C5E9000130463146BDE8B7
:10038000F087B3FA83F6002E4AD18B4202D3824221
:1003900000F2F980841A61EB030301209E46002DD0
:1003A000E0D0C5E9004EDDE702B9FFDEB2FA82F225
:1003B000002A40F09280A1EB0C014FEA1C471FFA83
:1003C0008CFE0126200CB1FBF7F307FB131140EA6A
:1003D00001410EFB03F0884208D91CEB010103F137
:1003E000FF3802D2884200F2CB804346091AA4B2F9
:1003F000B1FBF7F007FB101144EA01440EFB00FECD
:10040000A64508D91CEB040400F1FF3102D2A64531
:1004100000F2BB800846A4EB0E0440EA03409CE7D0
:10042000C6F12007B34022FA07FC4CEA030C20FA7D
:1004300007F401FA06F31C43F9404FEA1C4900FA9D
:1004400006F3B1FBF9F8200C1FFA8CFE09FB18111A
:1004500040EA014108FB0EF0884202FA06F20BD98D
:100460001CEB010108F1FF3A80F08880884240F2DD
:100470008580A8F102086144091AA4B2B1FBF9F021
:1004800009FB101144EA014100FB0EFE8E4508D91C
:100490001CEB010100F1FF346CD28E456AD90238A1
:1004A000614440EA0840A0FB0294A1EB0E01A14286
:1004B000C846A64656D353D05DB1B3EB080261EBF4
:1004C0000E0101FA07F722FA06F3F1401F43C5E9CE
:1004D000007100263146BDE8F087C2F12003D84004
:1004E0000CFA02FC21FA03F3914001434FEA1C4746
:1004F0001FFA8CFEB3FBF7F007FB10360B0C43EA38
:10050000064300FB0EF69E4204FA02F408D91CEBE7
:10051000030300F1FF382FD29E422DD902386344E5
:100520009B1B89B2B3FBF7F607FB163341EA034185
:1005300006FB0EF38B4208D91CEB010106F1FF38D4
:1005400016D28B4214D9023E6144C91A46EA0046CB
:1005500038E72E46284605E70646E3E61846F8E65D
:100560004B45A9D2B9EB020864EB0C0E0138A3E7A6
:100570004646EAE7204694E74046D1E7D0467BE787
:10058000023B614432E7304609E76444023842E7FF
:10059000704700BF80B500AF02F0B8FD00F08CF8E6
:1005A00000F026FB00F0F4F800F006F900F0D0FAB5
:1005B00000F034F900F072F900F0F0F900F024FADC
:1005C00000F09CFA0CF098FC00F06EFA0122304921
:1005D000304808F00AFC00231A4602232E492F480F
:1005E0000DF058F90023022219462D480DF0B4F8F9
:1005F00001F006FF4FF05041012001F083FF012080
:1006000001F0E4FF4FF07F4002F08EF84FF07F41A1
:10061000012002F029F80021012001F0E7FF214923
:10062000002001F06FFF002001F0D0FF02F0A6F9DA
:100630004FF07F4002F078F84FF07F4002F040F832
:10064000194802F025F8194802F054F80123134A1A
:100650000021002002F0D4F84FF0FF3002F018F82B
:1006600001F044FF03465B089BB20C3B99B20123A7
:100670000F4A002002F0C4F80CF064FC01224FF491
:1006800000510C4803F04AFF00F000FCF4E700BF03
:1006900000040020E002002070E902089C03002012
:1006A00090E90208000013D00000FFFF480000207E
:1006B000B0E902080018024080B594B000AF07F11D
:1006C00020033022002118460CF05EFF07F10C03D6
:1006D00000221A605A609A60DA601A610023BB60D7
:1006E000294B1B6C284A43F080531364264B1B6C28
:1006F00003F08053BB60BB6800237B60234B1B6807
:1007000023F44043214A43F4804313601F4B1B688A
:1007100003F440437B607B6801233B624FF48033EA
:100720007B620223BB634FF48003FB6310233B64B3
:100730004FF4A8737B640223BB640323FB6407F1BB
:100740002003184606F0F6F80346002B01D000F00F
:1007500097FB0F23FB6002233B6100237B614FF477
:10076000A053BB614FF4A053FB6107F10C030221BE
:10077000184606F057FB0346002B01D000F080FB23
:1007800000BF5037BD4680BD0038024000700040B9
:1007900080B500AF064B074A1A60054802F0FEFD1F
:1007A0000346002B01D000F06BFB00BF80BD00BFF3
:1007B000FC0000200030024080B500AF154B164A07
:1007C0001A60144B00225A60124B00229A60114B9F
:1007D0000022DA600F4B00229A620E4B0022DA628E
:1007E0000C4B00221A630B4B00225A63094803F09A
:1007F00041F80346002B01D000F042FB01210548DF
:1008000003F0A6FA0346002B01D000F039FB00BF2D
:1008100080BD00BF0401002000B0024080B500AFE1
:100820001B4B1C4A1A601A4B1B4A5A60184B002279
:100830009A60174B0022DA60154B4FF480421A6120
:10084000134B00225A61124B00229A61104B002276
:10085000DA610F4B00221A620D4805F09BFA03463D
:10086000002B01D000F00CFB0021094805F0D6FB5D
:100870000346002B01D000F003FB0021044805F0E3
:1008800009FC0346002B01D000F0FAFA00BF80BD3E
:1008900044010020005C0040A086010080B58EB0BD
:1008A00000AF3B1D3422002118460CF06DFE394B81
:1008B000394A1A60374B00225A60364B00229A6040
:1008C000344B0022DA60334B00221A61314B09228B
:1008D0005A61304B01229A612E4B1D22DA612D4B59
:1008E00003221A622B4B40F20D125A62294B40F23E
:1008F00043129A62274B40F21712DA62254B40F2FC
:1009000047121A63234B002283F83420214B002224
:1009100083F835201F4B002283F836201D4805F050
:10092000F9FB0346002B01D000F0AAFA00237B60FC
:10093000F023BB600023FB604FF4A0733B610223F4
:100940007B61FF23BB610023FB614FF4C0633B620B
:1009500007237B624FF05043BB62F023FB624FF4EE
:10096000A0733B63002387F83430002387F83530C9
:10097000002387F836303B1D00221946054805F054
:100980005BFD0346002B01D000F07AFA00BF383738
:10099000BD4680BD980100200068014080B500AFD1
:1009A000174B184A1A60164B4FF482725A60144B58
:1009B00000229A60124B0022DA60114B00221A6169
:1009C0000F4B00225A610E4B4FF400729A610C4B90
:1009D0001822DA610A4B00221A62094B00225A627D
:1009E000074B00229A62064B0A22DA62044806F09C
:1009F000BCFE0346002B01D000F042FA00BF80BDD0
:100A0000400200200050014080B586B000AF07F1E1
:100A1000080300221A605A609A60DA603B4600229E
:100A20001A605A601E4B1F4A1A601D4B00225A6002
:100A30001B4B00229A601A4B4FF6FF72DA60184B7C
:100A400000221A61164B00225A61154B00229A614E
:100A5000134807F069FC0346002B01D000F010FAA0
:100A60004FF48053BB6007F1080319460C4807F0A8
:100A700023FE0346002B01D000F002FA00233B6066
:100A800000237B603B461946054808F03FF80346C3
:100A9000002B01D000F0F4F900BF1837BD4680BD2F
:100AA000980200200000014080B500AF114B124AAF
:100AB0001A60104B4FF4E1325A600E4B00229A60DC
:100AC0000C4B0022DA600B4B00221A61094B0C22FE
:100AD0005A61084B00229A61064B0022DA610548F0
:100AE00008F0A4F80346002B01D000F0C9F900BFBC
:100AF00080BD00BFE00200200050004080B500AF84
:100B0000114B124A1A60104B4FF4E1325A600E4BEF
:100B100000229A600C4B0022DA600B4B00221A6113
:100B2000094B0C225A61084B00229A61064B0022A5
:100B3000DA61054808F07AF80346002B01D000F08E
:100B40009FF900BF80BD00BF2403002000100140BA
:100B500080B588B000AF3B1D00221A605A609A60D1
:100B6000DA601A615A619A611F4B204A1A601E4B63
:100B700001225A601C4B00229A601B4B0422DA604F
:100B8000194B10221A61184B40225A61164B4FF430
:100B9000C0729A61144B0022DA61134B4FF4006269
:100BA0001A62114B00225A620F4B4FF400529A62A4
:100BB00002237B600723BB600423FB6007233B61A8
:100BC00003237B610223BB610223FB613B1D1946AA
:100BD000054806F039FD0346002B01D000F050F91E
:100BE00000BF2037BD4680BD68030020400100A043
:100BF00080B58EB000AF07F1240300221A605A605E
:100C00009A60DA601A6100233B62854B1B6B844A51
:100C100043F004031363824B1B6B03F004033B623A
:100C20003B6A0023FB617E4B1B6B7D4A43F0200334
:100C300013637B4B1B6B03F02003FB61FB690023F9
:100C4000BB61774B1B6B764A43F080031363744B95
:100C50001B6B03F08003BB61BB6900237B61704B9E
:100C60001B6B6F4A43F0010313636D4B1B6B03F067
:100C700001037B617B6900233B61694B1B6B684A05
:100C800043F002031363664B1B6B03F002033B61EB
:100C90003B690023FB60624B1B6B614A43F04003DE
:100CA00013635F4B1B6B03F04003FB60FB68002387
:100CB000BB605B4B1B6B5A4A43F010031363584BEA
:100CC0001B6B03F01003BB60BB6800237B60544BBD
:100CD0001B6B534A43F008031363514B1B6B03F028
:100CE00008037B607B68002216214E4803F016FC47
:100CF000002280214C4803F011FC00224FF44051A7
:100D00004A4803F00BFC00224FF4C041484803F06E
:100D100005FC16237B620123BB620023FB620023D8
:100D20003B6307F1240319463E4803F03FF90123D2
:100D30007B624FF40413BB620023FB6207F12403C0
:100D40001946394803F032F948F206037B624FF442
:100D50009013BB620023FB6207F12403194632485B
:100D600003F024F980237B620123BB620023FB6232
:100D700000233B6307F1240319462B4803F016F9BF
:100D800020237B624FF49013BB620023FB6207F1C8
:100D900024031946234803F009F904237B62002346
:100DA000BB620023FB6207F124031946214803F0CC
:100DB000FDF84FF400637B620023BB620023FB62FB
:100DC00007F124031946194803F0F0F84FF4405393
:100DD0007B620123BB620023FB6200233B6307F1BC
:100DE00024031946114803F0E1F84FF4C0437B6235
:100DF0000123BB620023FB6200233B6307F1240352
:100E000019460B4803F0D2F800220021062002F018
:100E10009BFA062002F0B4FA00BF3837BD4680BD09
:100E2000003802400008024000000240000C02406E
:100E3000001802400004024080B582B000AF786024
:100E4000391D4FF0FF330122034807F03CFF7B6858
:100E500018460837BD4680BD2403002080B582B007
:100E600000AF78607B681B68044A934201D102F0AE
:100E70006FF900BF0837BD4680BD00BF00100040BD
:100E800080B400AF72B600BFFEE7000080B582B04C
:100E900000AF164B5B78002B24D0144B5B78022BF1
:100EA00020D00023FB71114B5B78032B05D1104838
:100EB0000CF0D8FC0123FB7102E00E480CF0D2FCD0
:100EC000FB79002B07D00C480CF0CCFC01210B481F
:100ED00000F03CF903E00021084800F037F9034B2B
:100EE00000225A7000BF0837BD4680BD10080020A0
:100EF000BCE90208D4E90208E8E90208E00200209F
:100F000080B582B000AF78607B680F4A934216D1FB
:100F10000E4B5B78002B03D00C4B5B78022B04D17B
:100F20000B4B1B78184600F015F8022200210848E8
:100F30000CF02AFB01220649034807F056FF00BFC8
:100F40000837BD4680BD00BFE00200201008002029
:100F50000004002080B584B000AF0346FB7100237D
:100F6000FB60754B1B78052B00F2E18001A252F863
:100F700023F000BF8D0F0208D90F02081F100208CE
:100F80005D10020887100208C310020840F20942EF
:100F900000216A480CF0F8FA674B00225A80664B31
:100FA00000229A80644B0022DA8000221A81FB79A9
:100FB000AA2B40F0B580604B5B885A1C91B25E4A08
:100FC000518019465D4AFB7953545B4B01221A70DC
:100FD000594B02225A70A3E0FB79AA2B11D140F29F
:100FE0000942002155480CF0CFFA534B00225A8099
:100FF000514B00229A80504B0022DA8000221A8145
:1010000095E04D4B5B885A1C91B24B4A5180194672
:101010004A4AFB795354484B02221A7087E0464BE8
:101020005B885A1C91B2444A51801946434AFB7965
:101030005354414B5B88032B74D9414B1A883E4B68
:101040009A803D4B9B88B3F5806F03D83A4B0322BF
:101050001A7067E0384B00221A7063E0364B5B88E9
:101060005A1C91B2344A51801946344AFB79535480
:10107000314B9B880333304A5288934254DA2E4BCB
:1010800004221A7050E02C4B5B885A1C91B22A4AF9
:1010900051801946294AFB795354274B9B880733C3
:1010A000254A5288934241DA234B9B880433234AD2
:1010B00013441B68204AC2F806301F4B05221A70E1
:1010C00034E01D4B5B8819461C4AFB7953541A4B7C
:1010D00003225A70184B00221A70174B5B881A466D
:1010E000164B9B5CBB2B19D1134B9B88194615489B
:1010F00000F058F8F860104BD3F80630FA689A42BE
:1011000008D00D4BD3F806301A46F9680E480CF09B
:1011100023FB04E0084B01225A7008E000BF06E000
:1011200000BF04E000BF02E000BF00E000BF00BF5E
:101130001037BD4680BD00BF100800200404002009
:101140000604002008040020F8E9020880B586B0F3
:1011500000AF78600B46FB7007F10C0300221A60A9
:101160005A601A81AA233B7303237B730123FB81FB
:10117000FB783B74BB237B7507F10C03043301211F
:10118000184600F00FF80346C7F8113007F10C01BC
:101190004FF0FF330A22786807F095FD00BF18373B
:1011A000BD4680BD80B487B000AF786039604FF035
:1011B000FF337B6100233B6114E07B691B0EFB73F3
:1011C0007A683B6913441A78FB7B5340FB737B6955
:1011D0001A02FB7B094951F8233053407B613B697C
:1011E00001333B613A693B689A42E6D37B69184612
:1011F0001C37BD465DF8047B704700BF40EA02081B
:1012000080B483B000AF00237B60104B5B6C0F4A4F
:1012100043F4804353640D4B5B6C03F480437B6069
:101220007B6800233B60094B1B6C084A43F08053EA
:101230001364064B1B6C03F080533B603B6800BF9C
:101240000C37BD465DF8047B704700BF0038024094
:1012500080B485B000AF78607B681B680B4A93420E
:101260000DD10023FB600A4B1B6B094A43F48053EA
:101270001363074B1B6B03F48053FB60FB6800BFD9
:101280001437BD465DF8047B704700BF0030024054
:101290000038024080B584B000AF78607B681B687E
:1012A0000E4A934215D10023FB600D4B1B6B0C4A79
:1012B00043F4000313630A4B1B6B03F40003FB604E
:1012C000FB68002205215A2002F03EF85A2002F065
:1012D00057F800BF1037BD4680BD00BF00B00240C8
:1012E0000038024080B58AB000AF786007F114037F
:1012F00000221A605A609A60DA601A617B681B6883
:10130000294A93424BD100233B61284B1B6B274A50
:1013100043F004031363254B1B6B03F004033B6191
:101320003B690023FB60214B1B6B204A43F0010308
:1013300013631E4B1B6B03F00103FB60FB684FF450
:1013400000737B611223BB610123FB6100233B62BD
:1013500004237B6207F114031946154802F026FEA8
:101360004FF480737B611223BB610123FB61002377
:101370003B6204237B6207F1140319460D4802F017
:1013800015FE0023BB60094B1B6C084A43F40003A5
:101390001364064B1B6C03F40003BB60BB6800BF07
:1013A0002837BD4680BD00BF005C004000380240C9
:1013B000000802400000024080B59AB000AF78609B
:1013C00007F1540300221A605A609A60DA601A61C9
:1013D00007F124033022002118460CF0D5F87B6871
:1013E0001B68854A934240F0028108237B623123C7
:1013F0007B630223FB630023BB6407F124031846CD
:1014000005F062FF0346002B01D0FFF739FD0023F2
:101410003B627A4B5B6C794A43F080635364774B51
:101420005B6C03F080633B623B6A0023FB61734BA0
:101430001B6B724A43F020031363704B1B6B03F06A
:101440002003FB61FB690023BB616C4B1B6B6B4A88
:1014500043F001031363694B1B6B03F00103BB6192
:10146000BB6900237B61654B1B6B644A43F002033D
:101470001363624B1B6B03F002037B617B690023E8
:101480003B615E4B1B6B5D4A43F0400313635B4B58
:101490001B6B03F040033B613B690023FB60574B30
:1014A0001B6B564A43F004031363544B1B6B03F04E
:1014B0000403FB60FB680023BB60504B1B6B4F4A6F
:1014C00043F0080313634D4B1B6B03F00803BB6031
:1014D000BB684FF480637B650223BB650023FB651B
:1014E00000233B660E237B6607F1540319464448EC
:1014F00002F05CFD41F658037B650223BB650023C7
:10150000FB6500233B660E237B6607F154031946F7
:101510003C4802F04BFD03237B650223BB6500239F
:10152000FB6500233B6609237B6607F154031946DC
:10153000354802F03BFD4FF470637B650223BB65C9
:101540000023FB6500233B660E237B6607F15403F3
:1015500019462D4802F02AFD4FF40C637B650223E7
:10156000BB650023FB6500233B660E237B6607F10A
:1015700054031946254802F019FD4FF498637B6522
:101580000223BB650023FB6500233B660E237B66BD
:1015900007F1540319461E4802F008FD48237B65F5
:1015A0000223BB650023FB6500233B660E237B669D
:1015B00007F154031946174802F0F8FC4FF4A05302
:1015C0007B650223BB650023FB6500233B66092383
:1015D0007B6607F1540319460C4802F0E7FC002231
:1015E0000521582001F0B0FE582001F0C9FE00BFCF
:1015F0006837BD4680BD00BF00680140003802402A
:1016000000140240000002400004024000180240A2
:1016100000080240000C024080B58AB000AF78603C
:1016200007F1140300221A605A609A60DA601A61A6
:101630007B681B68194A93422CD100233B61184BED
:101640005B6C174A43F480135364154B5B6C03F4D3
:1016500080133B613B690023FB60114B1B6B104AFD
:1016600043F0200313630E4B1B6B03F02003FB605E
:10167000FB684FF460737B610223BB610023FB6155
:1016800000233B6205237B6207F1140319460548DA
:1016900002F08CFC00BF2837BD4680BD00500140E1
:1016A000003802400014024080B582B000AF78607C
:1016B0007B681B68084A93420AD1084B5B6C074A57
:1016C00023F4801353644FF46071054802F01AFE4E
:1016D00000BF0837BD4680BD0050014000380240C1
:1016E0000014024080B485B000AF78607B681B684E
:1016F0000B4A93420DD10023FB600A4B5B6C094AF5
:1017000043F001035364074B5B6C03F00103FB6080
:10171000FB6800BF1437BD465DF8047B704700BF0F
:10172000000001400038024080B58CB000AF786006
:1017300007F11C0300221A605A609A60DA601A618D
:101740007B681B68464A934253D10023BB61454BDB
:101750001B6C444A43F480131364424B1B6C03F428
:101760008013BB61BB6900237B613E4B1B6B3D4A11
:1017700043F0040313633B4B1B6B03F004037B61D7
:101780007B6900233B61374B1B6B364A43F00803F0
:101790001363344B1B6B03F008033B613B694FF44D
:1017A0008053FB6102233B6200237B620323BB6205
:1017B0000823FB6207F11C0319462B4802F0F6FBD5
:1017C0000423FB6102233B6200237B620323BB6291
:1017D0000823FB6207F11C031946244802F0E6FBCC
:1017E00000220021352001F0AFFD352001F0C8FDB9
:1017F00031E07B681B681E4A93422CD10023FB60BA
:10180000184B5B6C174A43F010035364154B5B6C29
:1018100003F01003FB60FB680023BB60114B1B6BE4
:10182000104A43F0010313630E4B1B6B03F00103DB
:10183000BB60BB684FF4C063FB6102233B620023C3
:101840007B620323BB620723FB6207F11C0319467B
:10185000084802F0ABFB00BF3037BD4680BD00BF7B
:10186000005000400038024000080240000C0240D6
:10187000001001400000024080B586B000AF3B1D63
:1018800000221A605A609A60DA601A613B4B1B684A
:10189000002B6FD1394B01221A6000233B60384B7B
:1018A0009B6B374A43F001039363354B9B6B03F00B
:1018B00001033B603B684FF63F037B600223BB6044
:1018C0000023FB6003233B610C237B613B1D194616
:1018D0002C4802F06BFB01237B600223BB600023DA
:1018E000FB6003233B610C237B613B1D19462648AB
:1018F00002F05CFB48F233137B600223BB600023E1
:10190000FB6003233B610C237B613B1D19461F4891
:1019100002F04CFB4FF683737B600223BB60002315
:10192000FB6003233B610C237B613B1D1946184878
:1019300002F03CFB4CF203737B600223BB6000238C
:10194000FB6003233B610C237B613B1D194611485F
:1019500002F02CFB60237B600223BB600023FB6052
:1019600003233B610C237B613B1D19460A4802F0AF
:101970001DFB00E000BF1837BD4680BD1C080020DD
:1019800000380240001402400008024000180240E3
:1019900000100240000C02400004024080B582B0FA
:1019A00000AF7860FFF768FF00BF0837BD4680BD15
:1019B00080B58EB000AF78600023FB620023BB626D
:1019C0000023FB60334B1B6C324A43F0100313645B
:1019D000304B1B6C03F01003FB60FB6807F1100237
:1019E00007F114031146184605F03CFC3B6AFB6204
:1019F000FB6A002B03D105F00DFC786304E005F0D1
:101A000009FC03465B007B637B6B234AA2FB032339
:101A10009B0C013BBB62214B214A1A601F4B40F2D9
:101A2000E732DA601D4ABB6A53601C4B00221A6120
:101A30001A4B00229A60194B00229A61174806F04F
:101A400073FC034687F8333097F83330002B1BD1F3
:101A5000124806F0B9FC034687F8333097F8333064
:101A6000002B11D1362001F08BFC7B680F2B08D89E
:101A700000227968362001F067FC0A4A7B6813600F
:101A800002E0012387F8333097F8333018463837AF
:101A9000BD4680BD0038024083DE1B432008002085
:101AA000001000405400002080B400AFFEE780B476
:101AB00000AFFEE780B400AFFEE780B400AFFEE702
:101AC00080B400AFFEE780B400AF00BFBD465DF854
:101AD000047B704780B400AF00BFBD465DF8047B57
:101AE000704780B400AF00BFBD465DF8047B70470F
:101AF00080B400AF00BFBD465DF8047B704780B581
:101B000000AF012002F024FD00BF80BD80B500AF12
:101B1000024807F09BF900BF80BD00BFE002002033
:101B200080B500AF024806F0BFFC00BF80BD00BF1B
:101B30002008002080B500AF024802F08BFF00BFF4
:101B400080BD00BFA00E002080B500AF024804F0A9
:101B5000B1FB00BF80BD00BF9801002080B500AF81
:101B6000024801F0E4FF00BF80BD00BF0401002077
:101B700080B483B000AF0346FB8000BF0C37BD4686
:101B80005DF8047B704780B586B000AFF860B9603F
:101B90007A6000237B610AE0AFF300800146BB68F6
:101BA0005A1CBA60CAB21A707B6901337B617A69C8
:101BB0007B689A42F0DB7B6818461837BD4680BDCB
:101BC00080B586B000AFF860B9607A6000237B61B1
:101BD00009E0BB685A1CBA601B781846FFF72CF95D
:101BE0007B6901337B617A697B689A42F1DB7B68B0
:101BF00018461837BD4680BD80B483B000AF78600A
:101C00004FF0FF3318460C37BD465DF8047B704734
:101C100080B483B000AF786039603B684FF4005205
:101C20005A60002318460C37BD465DF8047B7047A8
:101C300080B483B000AF7860012318460C37BD46EE
:101C40005DF8047B704780B485B000AFF860B96080
:101C50007A60002318461437BD465DF8047B704750
:101C600080B586B000AF7860144A154BD31A7B61FB
:101C70007B693B61134B1B68002B02D1114B124A4D
:101C80001A60104B1A687B6813443A699A4207D26B
:101C90000BF040FC03460C221A604FF0FF3309E0C2
:101CA000084B1B68FB60074B1A687B681344054AA6
:101CB0001360FB6818461837BD4680BD000003203E
:101CC0000004000068080020B811002080B400AFB4
:101CD000074BD3F88830064A43F47003C2F88830C3
:101CE000034B044A9A6000BFBD465DF8047B704711
:101CF00000ED00E000000208DFF834D00D480E4986
:101D00000E4A002302E0D458C4500433C4188C4255
:101D1000F9D30B4A0B4C002301E013600432A242BA
:101D2000FBD3FFF7D3FF0BF0FBFBFEF733FC704751
:101D30000000032000000020E0000020340E030813
:101D4000E0000020B4110020FEE780B500AF00F0F5
:101D50005DFACA2000F05DF9C32000F067F90820A1
:101D600000F064F9502000F061F9CF2000F051F943
:101D7000002000F05BF9C12000F058F9302000F09D
:101D800055F9ED2000F045F9642000F04FF90320EB
:101D900000F04CF9122000F049F9812000F046F9DA
:101DA000E82000F036F9852000F040F9002000F02E
:101DB0003DF9782000F03AF9CB2000F02AF93920DB
:101DC00000F034F92C2000F031F9002000F02EF959
:101DD000342000F02BF9022000F028F9F72000F061
:101DE00018F9202000F022F9EA2000F012F9002072
:101DF00000F01CF9002000F019F9B12000F009F9F9
:101E0000002000F013F91B2000F010F9B62000F0BC
:101E100000F90A2000F00AF9A22000F007F9C0201A
:101E200000F0F7F8102000F001F9C12000F0F1F8FF
:101E3000102000F0FBF8C52000F0EBF8452000F082
:101E4000F5F8152000F0F2F8C72000F0E2F8902035
:101E500000F0ECF8362000F0DCF8C82000F0E6F8DE
:101E6000F22000F0D6F8002000F0E0F8B02000F0FA
:101E7000D0F8C22000F0DAF8B62000F0CAF80A2044
:101E800000F0D4F8A72000F0D1F8272000F0CEF819
:101E9000042000F0CBF82A2000F0BBF8002000F06E
:101EA000C5F8002000F0C2F8002000F0BFF8EF20D5
:101EB00000F0BCF82B2000F0ACF8002000F0B6F8E1
:101EC000002000F0B3F8012000F0B0F83F2000F04F
:101ED000ADF8F62000F09DF8012000F0A7F80020F2
:101EE00000F0A4F8062000F0A1F82C2000F091F8F2
:101EF000C82000F079FA262000F08BF8012000F0CD
:101F000095F8E02000F085F80F2000F08FF82920E8
:101F100000F08CF8242000F089F80C2000F086F8FE
:101F20000E2000F083F8092000F080F84E2000F029
:101F30007DF8782000F07AF83C2000F077F809204E
:101F400000F074F8132000F071F8052000F06EF82E
:101F5000172000F06BF8112000F068F8002000F066
:101F600065F8E12000F055F8002000F05FF8162039
:101F700000F05CF81B2000F059F8042000F056F83F
:101F8000112000F053F8072000F050F8312000F045
:101F90004DF8332000F04AF8422000F047F80520C1
:101FA00000F044F80C2000F041F80A2000F03EF860
:101FB000282000F03BF82F2000F038F80F2000F028
:101FC00035F8112000F025F8C82000F00DFA29207E
:101FD00000F01FF82C2000F01CF800BF80BD80B579
:101FE00000AF00F013F90321D32000F02CF80346D2
:101FF0009BB2184680BD80B500AF292000F009F8DB
:1020000000BF80BD80B500AF282000F002F800BFFF
:1020100080BD80B582B000AF0346FB71FB791846E6
:1020200000F08EF900BF0837BD4680BD80B582B094
:1020300000AF0346FB80FB88184600F05FF900BF45
:102040000837BD4680BD80B582B000AF03460A4662
:10205000FB8013467B717A79FB881146184600F0A5
:1020600091F9034618460837BD4680BD80B400AFDD
:10207000F0231846BD465DF8047B704780B400AF7E
:102080004FF4A0731846BD465DF8047B704700000E
:1020900080B500AF194806F008F80346002B2BD195
:1020A000164B174A1A60154B1822DA61134B00229F
:1020B0009A60124B00225A61104B00221A610F4B9A
:1020C00000229A620D4B0722DA620C4B0022DA6082
:1020D0000A4B00221A62094B4FF400729A61074BB7
:1020E00000225A62054B4FF482725A60034800F096
:1020F00053F8024805F039FB00BF80BD6C08002092
:102100000050014080B584B000AF0346FB7100234E
:10211000FB73FB799AB2094B1B6807F10801084869
:1021200005F010FD0346FB73FB7B002B01D000F094
:1021300027F8BB6818461037BD4680BD3C0000201C
:102140006C08002080B584B000AF0346FB800023FC
:10215000FB73094B1B68B91D0122084805F0B6FB4B
:102160000346FB73FB7B002B01D000F009F800BF96
:102170001037BD4680BD00BF3C0000206C08002029
:1021800080B500AF034805F079FBFFF781FF00BF82
:1021900080BD00BF6C08002080B58AB000AF7860B9
:1021A00000233B61174B5B6C164A43F48013536466
:1021B000144B5B6C03F480133B613B690023FB60B1
:1021C000104B1B6B0F4A43F0200313630D4B1B6B2B
:1021D00003F02003FB60FB684FF460737B61022314
:1021E000BB610223FB6101233B6205237B6207F194
:1021F00014031946044801F0D9FE00BF2837BD4634
:1022000080BD00BF003802400014024080B588B095
:1022100000AF364B1B78002B64D1344B01221A706F
:102220000023BB60324B1B6B314A43F0080313633E
:102230002F4B1B6B03F00803BB60BB684FF40053CC
:10224000FB6001233B6100237B610223BB6107F13B
:102250000C031946274801F0A9FE00237B60244B9C
:102260001B6B234A43F008031363214B1B6B03F0E2
:1022700008037B607B684FF48053FB6001233B6164
:1022800000237B610223BB6107F10C031946194847
:1022900001F08CFE00233B60154B1B6B144A43F08E
:1022A00004031363124B1B6B03F004033B603B6896
:1022B0000423FB6001233B6100237B610223BB619C
:1022C00007F10C0319460C4801F070FE00220421AE
:1022D000094802F023F901220421074802F01EF9FF
:1022E000FFF7D6FE00BF2037BD4680BDC4080020E2
:1022F00000380240000C02400008024080B582B065
:1023000000AF0346FB8001224FF400510A4802F05F
:1023100005F900220421094802F000F9FB8818465B
:10232000FFF710FF01220421044802F0F7F800BF74
:102330000837BD4680BD00BF000C024000080240C7
:1023400080B582B000AF0346FB7100224FF400510C
:102350000A4802F0E3F800220421094802F0DEF8FE
:10236000FB799BB21846FFF7EDFE012204210448D9
:1023700002F0D4F800BF0837BD4680BD000C024013
:102380000008024080B584B000AF03460A46FB80D7
:1023900013467B710023FB6000220421104802F0E9
:1023A000BDF800224FF400510E4802F0B7F8FB8848
:1023B0001846FFF7C7FE7B791846FFF7A3FEF860C3
:1023C00001224FF40051074802F0A8F8012204212D
:1023D000034802F0A3F8FB6818461037BD4680BDDD
:1023E00000080240000C024080B582B000AF786067
:1023F000786800F0CDFE00BF0837BD4680BD000004
:1024000080B500AF2D4B2E4A1A602C4B09225A6121
:102410002A4B01229A61294B1D22DA61274B0322A4
:102420001A62264B40F20D125A62244B40F24312BC
:102430009A62224B40F21712DA62204B40F24712A6
:102440001A631E4B002283F836201C4B002283F8AF
:1024500034201A4B002283F835201A4B08221A60C8
:10246000184BC0221A61174B04229A61154B4FF486
:1024700000325A62134804F027FF104B00225A60C2
:102480000E4B00229A600D4B0022DA600B4B0022AB
:102490001A6100F083FA094803F03CFE0A4B0B4A2C
:1024A0001A60094B1B681B68984700F065FC0848D8
:1024B00000F020F90023184680BD00BFC8080020A6
:1024C00000680140B0090020FC0900200400002041
:1024D0004000002080B500AF034B1B689B6A984703
:1024E0000346184680BD00BFFC09002080B500AF40
:1024F000034B1B68DB6A98470346184680BD00BF44
:10250000FC09002080B590B000AF03463960FB8025
:102510000023FB60FFF7DEFF03463B6100237B6186
:10252000FFF7E4FF0346BB610023FB613B683B63AD
:10253000FF233B6200237B62002387F83C300023AB
:1025400087F83D30002387F83E304FF4C063BB620C
:102550000723FB62FFF7BEFF03467B63FFF7C6FF5F
:102560000346BB63FA8807F10C031946144803F0CD
:1025700063FFFA88134913465B0013449B000B4426
:1025800004334FF0FF321A60FA880E4913465B009D
:1025900013449B000B4408330B4A1A60FA8809491C
:1025A00013465B0013449B000B444FF07F421A60BC
:1025B000034803F0FDFF00BF4037BD4680BD00BFAC
:1025C000C8080020E40900204000002080B483B047
:1025D00000AF7860044A7B68136000BF0C37BD46CB
:1025E0005DF8047B704700BFE009002080B483B031
:1025F00000AF78600B46FB70FB78012B12D1194BB2
:102600001B681A467B68DB01134484331B68154A38
:10261000126811467A68D2010A44843243F00103F9
:10262000136011E00F4B1B681A467B68DB011344F3
:1026300084331B680B4A126811467A68D2010A4437
:10264000843223F001031360064B1B685A6A054B62
:102650001B6842F001025A6200BF0C37BD465DF8AC
:10266000047B7047C808002080B582B000AF786056
:1026700039607A683968054803F01CFF79680348B7
:1026800003F05CFF00BF0837BD4680BDC8080020CE
:1026900080B483B000AF7860074B1A6807491346CF
:1026A0005B0013449B000B447A681A6000BF0C3730
:1026B000BD465DF8047B7047E0090020E409002076
:1026C00080B483B000AF7860084B1A68084913469D
:1026D0005B0013449B000B4404337A681A6000BF0C
:1026E0000C37BD465DF8047B704700BFE009002051
:1026F000E409002080B483B000AF7860084B1A680A
:10270000084913465B0013449B000B4408337A6866
:102710001A6000BF0C37BD465DF8047B704700BFF0
:10272000E0090020E4090020F0B585B002AF786030
:102730000F4B1C680E4B1B680E4A342101FB03F340
:1027400013445C331B681E46FFF7C4FE0546FFF7C3
:10275000CDFE02467B6801930023009313462A4670
:102760003146204600F0D0FA00BF0C37BD46F0BD20
:10277000E0090020C808002090B583B000AF0346F0
:10278000FB800B46BB801346FB701B4B1A681B4932
:1027900013465B0013449B000B4408331B68196805
:1027A000FB78A3F12000144B1A68144C13465B000D
:1027B00013449B00234408331B68DB8803FB00F0B1
:1027C0000D4B1A680D4C13465B0013449B002344C9
:1027D00008331B689B880733002B00DA0733DB10B4
:1027E00000FB03F3CA18B988FB88184600F0D2F939
:1027F00000BF0C37BD4690BDE0090020E409002071
:10280000B0B588B000AFBA601A460346FB810B46EC
:10281000BB811346FB710123FB830023BB83002391
:10282000BB6100233B61BB687B6102E0BB69013394
:10283000BB617B695A1C7A611B78002BF6D1FFF7CC
:1028400049FE01464B4B1A684B4813465B00134444
:102850009B00034408331B689B88B1FBF3F33B6187
:10286000FB79032B1CD0032B33DC012B02D0022B72
:1028700019D02EE03A69BB69D11A3E4B1A683E481E
:1028800013465B0013449B00034408331B689B887A
:1028900001FB03F35B089AB2FB891344FB831BE043
:1028A000FB89FB8318E03A69BB69D31A99B2314BB3
:1028B0001A68314813465B0013449B0003440833F5
:1028C0001B689B8811FB03F39AB2FB891344FB83BB
:1028D00002E0FB89FB8300BF1AE0BB681A78B98964
:1028E000FB8B1846FFF748FF224B1A682249134614
:1028F0005B0013449B000B4408331B689A88FB8BD6
:102900001344FB83BB680133BB60BB8B0133BB83C8
:10291000BB681B78002B14BF01230023DCB2FFF738
:10292000D9FDB98B134B1A68134D13465B00134442
:102930009B002B4408331B689B8801FB03F3C31ADD
:1029400099B20C4B1A680C4813465B0013449B0069
:10295000034408331B689B8899422CBF0123002342
:10296000DBB22340DBB2002BB7D100BF00BF203762
:10297000BD46B0BDE0090020E409002080B500AFED
:10298000054B1B689B68002B03D0034B1B689B689F
:10299000984700BF80BD00BFFC09002080B58EB005
:1029A00000AF00233B62614B5B6C604A43F0806385
:1029B00053645E4B5B6C03F080633B623B6A0023B5
:1029C000FB615A4B1B6B594A43F400031363574B8B
:1029D0001B6B03F40003FB61FB690023BB61534BDA
:1029E0001B6B524A43F001031363504B1B6B03F004
:1029F0000103BB61BB6900237B614C4B1B6B4B4AE2
:102A000043F002031363494B1B6B03F002037B612A
:102A10007B6900233B61454B1B6B444A43F0040335
:102A20001363424B1B6B03F004033B613B690023C0
:102A3000FB603E4B1B6B3D4A43F0080313633B4B6B
:102A40001B6B03F00803FB60FB680023BB60374B84
:102A50001B6B364A43F020031363344B1B6B03F0AC
:102A60002003BB60BB6800237B60304B1B6B2F4A8D
:102A700043F0400313632D4B1B6B03F040037B605B
:102A80007B6841F658037B620223BB620023FB6232
:102A900002233B630E237B6307F12403194624487A
:102AA00001F084FA4FF470637B6207F12403194646
:102AB000204801F07BFA4FF498637B6207F124030E
:102AC00019461D4801F072FA48237B6207F124037E
:102AD00019461A4801F06AFA4FF480637B6207F1E5
:102AE00024031946164801F061FA4FF40C637B6227
:102AF00007F124031946134801F058FA03237B62B7
:102B000009237B6307F1240319460A4801F04EFAB2
:102B10004FF4A0537B6207F124031946094801F0E2
:102B200045FA00BF3837BD4680BD00BF00380240BF
:102B3000000002400004024000080240000C024075
:102B40000014024000180240B0B582B000AF034646
:102B50003A60FB800B46BB800C4B1B680C4A34214F
:102B600001FB03F313445C331C68BD88FFF7B2FC20
:102B7000034603FB05F2FB8813449B0023441A46DB
:102B80003B68136000BF0837BD46B0BDE0090020B8
:102B9000C808002080B588B000AF03463A60FB80CB
:102BA0000B46BB800023FB610023BB6100237B61DC
:102BB000534B1A68534913465B0013449B000B4464
:102BC00008331B68DB887B824D4B1A684D491346DE
:102BD0005B0013449B000B4408331B689B883B82BB
:102BE0003B8A0733002B00DA0733DB10DBB2DB0054
:102BF000DAB23B8ADBB2D31AFB730023FB6176E0C7
:102C00003B8A0733002B00DA0733DB101A46FB69D7
:102C100002FB03F33A681344BB603B8A0733002B83
:102C200000DA0733DB10012B02D0022B04D00CE0BA
:102C3000BB681B787B6116E0BB681B781B02BA6817
:102C40000132127813437B610DE0BB681B781A04D4
:102C5000BB6801331B781B021343BA680232127837
:102C600013437B6100BF0023BB6136E03A8ABB6936
:102C7000D21AFB7B1344013B012202FA03F31A46EA
:102C80007B691340002B12D0BB699AB2FB881344B6
:102C900098B21B4B1A681B4913465B0013449B00F8
:102CA0000B441A68BB881946FFF74EFF12E0BB6958
:102CB0009AB2FB88134498B2114B1A681149134613
:102CC0005B0013449B000B4404331A68BB8819460D
:102CD000FFF73AFFBB690133BB613B8ABA699A428D
:102CE000C4D3BB880133BB80FB690133FB617B8AA2
:102CF000FA699A4284D300BF00BF2037BD4680BD29
:102D0000E0090020E409002080B586B002AFF86039
:102D1000B9607A603B60164B4FF440325A60144BF6
:102D200000229A60124ABB69D360114B114A1A60A3
:102D30000F4800F09FFD0346002B15D1F9680C48A1
:102D400001F006F80346002B0ED1BA683B680093E9
:102D50007B68F969064800F0D6FD0346002B03D1D5
:102D60000A21034800F0FAFD00BF1037BD4680BDC0
:102D70007009002000B0024080B500AF294B2A4AFC
:102D80001A602A4B02221A60284B07225A60274BEE
:102D900004229A60254B0722DA60244B02221A6132
:102DA000224B02225A61214B02229A611D4B0122C1
:102DB0005A601C4B00229A601A4B0422DA60194BAD
:102DC00010221A61174B40225A61164B4FF4C07201
:102DD0009A61144B0022DA61124B4FF400621A62BE
:102DE000104B00225A620F4B4FF400529A6200219E
:102DF0000C4800F07FF80D490A4804F025FC034612
:102E0000002B03D00A4B01221A7002E0084B00226B
:102E10001A7040F26A5000F00DF8054B1B78184606
:102E200080BD00BF000A0020400100A0340A00203D
:102E30005000002080B584B000AF78600023FB60B4
:102E40002A4B01221A60294B08225A60274B012283
:102E50009A60264B0022DA604FF6FF72234924481D
:102E600004F026FC012000F093F9204B02221A60A6
:102E70001E4B08225A601D4B01229A601B4B0022F8
:102E8000DA604FF6FF721949194804F011FC174B2C
:102E900003221A60154B08225A60144B04229A60D0
:102EA000124B0022DA604FF6FF721049104804F00E
:102EB000FFFB4FF40C73FB600C4B04221A600B4BAE
:102EC00008225A60094B01229A60FB68074AD360C6
:102ED0004FF6FF720549064804F0EAFB796804489A
:102EE00004F01BFC00BF1037BD4680BD500A002017
:102EF000000A002080B590B000AF786039607B6830
:102F0000002B00F0EC800023BB62774B9B6B764A72
:102F100043F001039363744B9B6B03F00103BB62AB
:102F2000BB6A00237B62704B1B6B6F4A43F48003C8
:102F300013636D4B1B6B03F480037B627B6A00237E
:102F40003B62694B1B6B684A43F002031363664B99
:102F50001B6B03F002033B623B6A0023FB61624B85
:102F60001B6B614A43F0040313635F4B1B6B03F05D
:102F70000403FB61FB690023BB615B4B1B6B5A4A7B
:102F800043F008031363584B1B6B03F00803BB614A
:102F9000BB6900237B61544B1B6B534A43F0100306
:102FA0001363514B1B6B03F010037B617B690023A0
:102FB0003B614D4B1B6B4C4A43F0200313634A4B60
:102FC0001B6B03F020033B613B690023FB60464B16
:102FD0001B6B454A43F040031363434B1B6B03F0E9
:102FE0004003FB60FB6802233B630223BB630023B7
:102FF0007B630C23FB636023FB6207F12C03194600
:103000003A4800F0D3FF0123FB6207F12C03194675
:10301000374800F0CBFF4CF20373FB6207F12C033F
:103020001946344800F0C2FF4FF68373FB6207F184
:103030002C031946304800F0B9FF4FF63F03FB62FE
:1030400007F12C0319462D4800F0B0FF48F2331366
:10305000FB6207F12C031946294800F0A7FF294B12
:1030600000225A60274B80229A60264B4FF4007250
:10307000DA60244B4FF480621A61224B4FF4805285
:103080005A61204B4FF480429A611E4B0022DA6154
:103090001C4B4FF400321A621A4B00225A62194B31
:1030A00003229A62174B0022DA62164B00221A633F
:1030B000144B154A1A607B68124A1A63114A7B68DE
:1030C0009363104800F034FA0E4800F083F90022B0
:1030D0000F21382000F038F9382000F051F900BFF6
:1030E0004037BD4680BD00BF0038024000040240AA
:1030F00000080240000C0240001002400014024090
:1031000000180240600A00201064024080B500AF41
:103110000E4B1B680D4A43F4007313600B4B1B6886
:103120000A4A43F480631360084B1B68074A43F460
:1031300080731360032000F0FCF80F20FEF738FCCA
:10314000FEF75EF80023184680BD00BF003C024039
:1031500080B400AF064B1B781A46064B1B6813441D
:10316000044A136000BFBD465DF8047B704700BF92
:1031700058000020C00A002080B400AF034B1B6839
:103180001846BD465DF8047B704700BFC00A0020AA
:1031900080B584B000AF7860FFF7EEFFB8607B6861
:1031A000FB60FB68B3F1FF3F05D00A4B1B781A4662
:1031B000FB681344FB6000BFFFF7DEFF0246BB68FD
:1031C000D31AFA689A42F7D800BF00BF1037BD463D
:1031D00080BD00BF5800002080B485B000AF78608B
:1031E0007B6803F00703FB600C4BDB68BB60BA68CD
:1031F0004FF6FF031340BB60FB681A02BB68134322
:1032000043F0BF6343F40033BB60044ABB68D36040
:1032100000BF1437BD465DF8047B704700ED00E049
:1032200080B400AF044BDB681B0A03F007031846A9
:10323000BD465DF8047B704700ED00E080B483B0CC
:1032400000AF0346FB7197F90730002B0BDBFB79CE
:1032500003F01F02074997F907305B09012000FAC4
:1032600002F241F8232000BF0C37BD465DF8047B15
:10327000704700BF00E100E080B483B000AF0346B8
:103280003960FB7197F90730002B0ADB3B68DAB233
:103290000C4997F907301201D2B20B4483F800238E
:1032A0000AE03B68DAB20849FB7903F00F03043BFC
:1032B0001201D2B20B441A7600BF0C37BD465DF83E
:1032C000047B704700E100E000ED00E080B489B0CD
:1032D00000AFF860B9607A60FB6803F00703FB6138
:1032E000FB69C3F10703042B28BF0423BB61FB69FF
:1032F0000433062B02D9FB69033B00E000237B610A
:103300004FF0FF32BB6902FA03F3DA43BB681A409D
:103310007B699A404FF0FF317B6901FA03F3D9438F
:103320007B680B40134318462437BD465DF8047B89
:10333000704780B582B000AF78607868FFF74CFFC7
:1033400000BF0837BD4680BD80B586B000AF0346DC
:10335000B9607A60FB7300237B61FFF761FF7861DE
:103360007A68B9687869FFF7B1FF024697F90F30BC
:1033700011461846FFF780FF00BF1837BD4680BDD5
:1033800080B582B000AF0346FB7197F9073018464D
:10339000FFF754FF00BF0837BD4680BD80B582B03F
:1033A00000AF78607B68002B01D101230EE07B68C1
:1033B0005B79DBB2002B05D17B6800221A7178683B
:1033C000FDF746FF7B6801225A7100231846083733
:1033D000BD4680BD80B586B000AF786000237B61BC
:1033E000FFF7CAFE38617B68002B01D1012399E009
:1033F0007B68022283F835207B68002283F8342022
:103400007B681B681A687B681B6822F001021A60DF
:103410000FE0FFF7B1FE02463B69D31A052B08D92E
:103420007B6820225A657B68032283F835200323BA
:1034300078E07B681B681B6803F00103002BE8D170
:103440007B681B681B687B617A69384B13407B6122
:103450007B685A687B689B681A437B68DB681A4301
:103460007B681B691A437B685B691A437B689B69AD
:103470001A437B68DB691A437B681B6A13437A69CA
:1034800013437B617B685B6A042B07D17B68DA6A34
:103490007B681B6B13437A6913437B617B681B68F2
:1034A0007A691A607B681B685B697B617B6923F0C2
:1034B00007037B617B685B6A7A6913437B617B6886
:1034C0005B6A042B17D17B689B6A7A6913437B6123
:1034D0007B68DB6A002B0ED0786800F04FF903465A
:1034E000002B08D07B6840225A657B68012283F854
:1034F0003520012316E07B681B687A695A61786879
:1035000000F006F90346FB607B68DB6D3F229A40C2
:10351000FB689A607B6800225A657B68012283F809
:103520003520002318461837BD4680BD3F8010F077
:1035300080B584B000AF78607B68002B01D1012397
:1035400050E07B6893F83530DBB2022B01D10223C7
:1035500048E07B681B681A687B681B6822F00102E0
:103560001A607B681B6800221A607B681B68002257
:103570005A607B681B6800229A607B681B68002287
:10358000DA607B681B6800221A617B681B68212255
:103590005A61786800F0BCF80346FB607B68002243
:1035A000DA637B6800221A647B6800225A647B68B5
:1035B00000229A647B680022DA647B6800221A6524
:1035C0007B68DB6D3F229A40FB689A607B68002233
:1035D0005A657B68002283F835207B68002283F8D7
:1035E0003420002318461037BD4680BD80B584B016
:1035F00000AF78607B689B6DFB60FFF7BDFDB86036
:103600007B6893F83530DBB2022B08D07B688022D0
:103610005A657B68002283F83420012352E07B68DE
:103620001B681A687B681B6822F016021A607B68A8
:103630001B685A697B681B6822F080025A617B68AC
:103640001B6C002B03D17B689B6C002B07D07B6825
:103650001B681A687B681B6822F008021A607B6886
:103660001B681A687B681B6822F001021A6013E06D
:10367000FFF782FD0246BB68D31A052B0CD97B6885
:1036800020225A657B68032283F835207B6800225C
:1036900083F83420032315E07B681B681B6803F064
:1036A0000103002BE4D17B68DB6D3F229A40FB686D
:1036B0009A607B68012283F835207B68002283F8BA
:1036C0003420002318461037BD4680BD80B483B037
:1036D00000AF78607B6893F83530DBB2022B04D002
:1036E0007B6880225A6501230CE07B68052283F801
:1036F00035207B681B681A687B681B6822F0010212
:103700001A60002318460C37BD465DF8047B7047ED
:1037100080B485B000AF78607B681B68DBB2103B7B
:10372000144AA2FB03231B09FB60134AFB681344E2
:103730001B781A467B68DA65FB68032B09D97B681E
:103740001B6823F47F7323F003031A1D7B689A65BB
:1037500007E07B681B6823F47F7323F003037A6818
:1037600093657B689B6D18461437BD465DF8047BF6
:10377000704700BFABAAAAAA840D030880B485B025
:1037800000AF78600023FB737B689B6ABB607B683B
:103790009B69002B1FD1BB68032B56D801A252F89E
:1037A00023F000BFB5370208C7370208B537020853
:1037B0004B3802087B68DB6A03F08073002B46D02D
:1037C0000123FB7343E07B68DB6AB3F1C07F40D128
:1037D0000123FB733DE07B689B69B3F5005F21D15A
:1037E000BB68032B37D801A252F823F0FD3702083B
:1037F00003380208FD370208153802080123FB735D
:1038000030E07B68DB6A03F08073002B25D0012356
:10381000FB7322E07B68DB6AB3F1C07F1FD1012319
:10382000FB731CE0BB68022B03D9BB68032B03D0DE
:1038300018E00123FB7315E07B68DB6A03F08073FB
:10384000002B0ED00123FB730BE000BF0AE000BF8A
:1038500008E000BF06E000BF04E000BF02E000BFD8
:1038600000E000BFFB7B18461437BD465DF8047BC3
:10387000704700BF80B582B000AF78607B68002BD6
:1038800001D101233BE07B6893F83930DBB2002B98
:1038900006D17B68002283F838207868FDF7FAFCAF
:1038A0007B68022283F839207B681B681B6823F43D
:1038B00040317B685A687B681B680A431A607B68E2
:1038C0001B685B6B23F007017B689A687B681B6849
:1038D0000A435A637B681B681B6C23F47F5323F0F5
:1038E0003F037A68D1687A6812680B4313647B6877
:1038F0000022DA637B68012283F83920002318460E
:103900000837BD4680BD80B586B002AFF860B960AB
:103910007A603B60FB6893F83830012B01D10223B9
:1039200018E0FB68012283F83820FB68022283F844
:103930003920BB6900933B687A68B968F86800F081
:1039400099FAFB681B681A68FB681B6842F0010261
:103950001A60002318461037BD4680BD80B586B07A
:1039600000AF786039600023FB607B681B681B68D0
:1039700003F00103002B56D0FFF7FEFB78614BE00C
:103980007B681B685B68FB60FB6803F02103002B0E
:1039900023D0FB6803F02003002B05D07B68DB6B92
:1039A00043F002027B68DA63FB6803F00103002B3B
:1039B00005D07B68DB6B43F001027B68DA637B68D0
:1039C0001B6821229A607B68042283F839207B6877
:1039D000002283F838200123A5E03B68B3F1FF3FC4
:1039E0001AD0FFF7C9FB02467B69D31A3A689A429C
:1039F00002D33B68002B0FD17B68DB6B43F02002C6
:103A00007B68DA637B68032283F839207B680022B5
:103A100083F83820032386E07B681B685B6803F02B
:103A20000203002BACD07B681B68DB6903F020032A
:103A30003B617B681B685B6A03F020033A691343B0
:103A40003B613B69002B61D0FFF796FB786156E044
:103A50007B681B685B68FB60FB6803F02903002B35
:103A60002ED0FB6803F00803002B05D07B68DB6BCE
:103A700043F004027B68DA63FB6803F02003002B49
:103A800005D07B68DB6B43F002027B68DA63FB687E
:103A900003F00103002B05D07B68DB6B43F00102D0
:103AA0007B68DA637B681B6829229A607B68042242
:103AB00083F839207B68002283F83820012332E024
:103AC0003B68B3F1FF3F1AD0FFF756FB02467B6914
:103AD000D31A3A689A4202D33B68002B0FD17B6815
:103AE000DB6B43F020027B68DA637B68032283F898
:103AF00039207B68002283F83820032313E07B6899
:103B00001B685B6803F01003002BA1D07B681B6867
:103B100012229A607B68012283F839207B68002298
:103B200083F83820002318461837BD4680BD80B57D
:103B300084B000AF78607B681B685B68FB607B6863
:103B40001B681B68BB60FB6803F00103002B26D0D9
:103B5000BB6803F48073002B21D07B681B681A6854
:103B60007B681B6822F480721A607B68DB6B43F011
:103B700001027B68DA637B681B6801229A607B68BC
:103B8000042283F839207B68002283F838207B6880
:103B90005B69002B03D07B685B6978689847FB689A
:103BA00003F02003002B26D0BB6803F40053002B46
:103BB00021D07B681B681A687B681B6822F400525E
:103BC0001A607B681B6820229A607B68DB6B43F07D
:103BD00002027B68DA637B68042283F839207B6801
:103BE000002283F838207B685B69002B03D07B6858
:103BF0005B6978689847FB6803F00803002B26D0C0
:103C0000BB6803F40063002B21D07B681B681A6833
:103C10007B681B6822F400621A607B681B680822BC
:103C20009A607B68DB6B43F004027B68DA637B6835
:103C3000042283F839207B68002283F838207B68CF
:103C40005B69002B03D07B685B6978689847FB68E9
:103C500003F00403002B13D0BB6803F48063002B34
:103C60000ED07B681B681A687B681B6822F4806230
:103C70001A607B681B6804229A60786800F053F829
:103C8000FB6803F00203002B24D0BB6803F400732D
:103C9000002B1FD07B681B681A687B681B6822F4A6
:103CA00000721A607B681B6802229A607B68DA6B7C
:103CB0007B68DA637B68012283F839207B68002205
:103CC00083F838207B681B69002B03D07B681B6955
:103CD00078689847FB6803F01003002B1FD0BB687F
:103CE00003F48053002B1AD07B681B681A687B682A
:103CF0001B6822F480521A607B681B6810229A604D
:103D00007B68DA6B7B68DA637B68012283F8392091
:103D10007B68002283F83820786800F00EF800BF36
:103D20001037BD4680BD80B483B000AF786000BF5F
:103D30000C37BD465DF8047B704780B483B000AF9C
:103D4000786000BF0C37BD465DF8047B704700000B
:103D500080B487B000AF786039607B685B68B3F58A
:103D6000403F7B6893F83830012B01D1022379E082
:103D70007B68012283F838207B68022283F839208F
:103D80003B681B0118337A6813443B613B695A68EE
:103D90003B699B681B0413437B61354BFB603B69AC
:103DA0005B680A2B03D03B695B68092B07D13B6931
:103DB000DB6803F07F437A6913437B6105E03B696D
:103DC000DB681B067A6913437B613B68002B20D1BB
:103DD0007B681B685A6AFB68DB4302EA03017B6865
:103DE0001B687A690A435A627B681B683A691268E1
:103DF0009A613B695B680A2B03D03B695B68092BBE
:103E000027D13B69DA687B681B6822F07F429A629F
:103E10001FE07B681B68DA69FB68DB4302EA030189
:103E20007B681B687A690A43DA617B681B683A69B8
:103E300012681A613B695B680A2B03D03B695B68B7
:103E4000092B06D13B69DA687B681B6822F07F4248
:103E50001A627B68012283F839207B68002283F88C
:103E60003820002318461C37BD465DF8047B704798
:103E70000F0003FF80B48BB000AFF860B9607A60C8
:103E80003B60FB681B685B6C03F040413B681A04B5
:103E90003B6B1A43FB681B680A435A64FB681B6848
:103EA0007A68DA63FB685B68B3F5403F74D1BB683E
:103EB00003F07F433B62BB6803F47F03FB61BB6895
:103EC00003F47F43BB61BB68DBB27B61FB689B682B
:103ED000002B08D1BA69FB691A433B6A13437A691C
:103EE00013437B6253E0FB689B68012B06D1BA69E0
:103EF000FB6913437A6913437B6248E0FB689B6864
:103F0000022B11D1FB69DB0CFB61BB699B0ABB6116
:103F10007B69DB087B61BB695A01FB69DB021343E8
:103F20007A6913437B6232E0FB689B68032B17D1ED
:103F30003B6ADB0F3B62FB69DB0CFB61BB69DB0AA5
:103F4000BB617B69DB087B61BB695A01FB699B0232
:103F50001A433B6ADB0313437A6913437B6216E01F
:103F60003B6A1B0F3B62FB691B0DFB61BB691B0BB3
:103F7000BB617B691B097B61BB691A01FB691B0281
:103F80001A433B6A1B0313437A6913437B62FB6842
:103F90001B687A6A9A6303E0FB681B68BA68DA6098
:103FA00000BF2C37BD465DF8047B704780B489B0F4
:103FB00000AF7860396000237B6100233B61002300
:103FC000BB610023FB6177E10122FB6902FA03F385
:103FD0007B613B681B687A6913403B613A697B6986
:103FE0009A4240F066813B685B6803F00303012B53
:103FF00005D03B685B6803F00303022B30D17B687C
:104000009B68BB61FB695B00032202FA03F3DB439D
:10401000BA691340BB613B68DA68FB695B0002FA6E
:1040200003F3BA691343BB617B68BA699A607B6822
:104030005B68BB610122FB6902FA03F3DB43BA69E7
:104040001340BB613B685B681B0903F00102FB691D
:1040500002FA03F3BA691343BB617B68BA695A6019
:104060003B685B6803F00303032B17D07B68DB68B6
:10407000BB61FB695B00032202FA03F3DB43BA690D
:104080001340BB613B689A68FB695B0002FA03F36B
:10409000BA691343BB617B68BA69DA603B685B68E5
:1040A00003F00303022B23D1FB69DA087B68083293
:1040B00053F82230BB61FB6903F007039B000F221A
:1040C00002FA03F3DB43BA691340BB613B681A6928
:1040D000FB6903F007039B0002FA03F3BA69134379
:1040E000BB61FB69DA087B680832B96943F82210C2
:1040F0007B681B68BB61FB695B00032202FA03F368
:10410000DB43BA691340BB613B685B6803F00302A1
:10411000FB695B0002FA03F3BA691343BB617B6876
:10412000BA691A603B685B6803F44033002B00F007
:10413000C0800023FB60664B5B6C654A43F48043A0
:104140005364634B5B6C03F48043FB60FB68614A20
:10415000FB699B08023352F82330BB61FB6903F013
:1041600003039B000F2202FA03F3DB43BA691340F7
:10417000BB617B68584A934237D07B68574A934269
:1041800031D07B68564A93422BD07B68554A934284
:1041900025D07B68544A93421FD07B68534A934290
:1041A00019D07B68524A934213D07B68514A93429C
:1041B0000DD07B68504A934207D07B684F4A9342A8
:1041C00001D1092312E00A2310E008230EE007239F
:1041D0000CE006230AE0052308E0042306E003239D
:1041E00004E0022302E0012300E00023FA6902F068
:1041F000030292009340BA691343BB613549FB69DE
:104200009B080233BA6941F823203D4B9B68BB6190
:104210003B69DB43BA691340BB613B685B6803F4ED
:104220008013002B03D0BA693B691343BB61344A46
:10423000BB699360324BDB68BB613B69DB43BA69A6
:104240001340BB613B685B6803F40013002B03D091
:10425000BA693B691343BB61294ABB69D360284BE8
:104260005B68BB613B69DB43BA691340BB613B6878
:104270005B6803F40033002B03D0BA693B69134336
:10428000BB611F4ABB6953601D4B1B68BB613B6927
:10429000DB43BA691340BB613B685B6803F480335E
:1042A000002B03D0BA693B691343BB61144ABB6955
:1042B0001360FB690133FB61FB690F2B7FF684AE52
:1042C00000BF00BF2437BD465DF8047B704700BFC8
:1042D0000038024000380140000002400004024063
:1042E00000080240000C024000100240001402408E
:1042F00000180240001C024000200240002402403E
:10430000003C014080B487B000AF78603960002382
:104310003B610023FB600023BB6000237B61D9E08D
:1043200001227B6902FA03F33B613A683B6913405F
:10433000FB60FA683B699A4240F0C9806B4A7B692E
:104340009B08023352F82330BB607B6903F0030300
:104350009B000F2202FA03F3BA681340BB607B682C
:10436000634A934237D07B68624A934231D07B687C
:10437000614A93422BD07B68604A934225D07B6888
:104380005F4A93421FD07B685E4A934219D07B6894
:104390005D4A934213D07B685C4A93420DD07B68A0
:1043A0005B4A934207D07B685A4A934201D1092362
:1043B00012E00A2310E008230EE007230CE0062396
:1043C0000AE0052308E0042306E0032304E00223B7
:1043D00002E0012300E000237A6902F00302920068
:1043E0009340BA689A4232D14B4B1A68FB68DB4360
:1043F000494913400B60484B5A68FB68DB43464908
:1044000013404B60444BDA68FB68DB43424913407E
:10441000CB60414B9A68FB68DB433F4913408B609C
:104420007B6903F003039B000F2202FA03F3BB60D6
:104430002E4A7B699B08023352F82310BB68DA438B
:104440002A487B699B080A40023340F823207B6896
:104450001A687B695B00032101FA03F3DB431A400E
:104460007B681A607B69DA087B68083253F822108F
:104470007B6903F007039B000F2202FA03F3DB437F
:104480007A69D20819407B68083243F822107B68A9
:10449000DA687B695B00032101FA03F3DB431A400E
:1044A0007B68DA607B685A6801217B6901FA03F353
:1044B000DB431A407B685A607B689A687B695B00C3
:1044C000032101FA03F3DB431A407B689A607B699E
:1044D00001337B617B690F2B7FF622AF00BF00BFEA
:1044E0001C37BD465DF8047B704700BF00380140B3
:1044F000000002400004024000080240000C02409C
:10450000001002400014024000180240001C02404B
:104510000020024000240240003C014080B483B0EF
:1045200000AF78600B467B8013467B707B78002B56
:1045300003D07A887B689A6103E07B881A047B68E1
:104540009A6100BF0C37BD465DF8047B70470000E0
:1045500080B582B000AF0346FB80084B5A69FB88E8
:104560001340002B06D0054AFB885361FB88184690
:10457000FDF7FEFA00BF0837BD4680BD003C014094
:10458000F0B58FB00AAF78607B68002B01D10123B2
:1045900054E07B681B68FB607B6893F8F932DBB200
:1045A000002B06D17B68002283F8F822786808F097
:1045B00001FD7B68032283F8F922FB68DB6B03F4BF
:1045C0008073002B02D17B6800221A617B681B6814
:1045D000184605F02FFD7B681B683B607E686D46C2
:1045E00006F110040FCC0FC50FCC0FC594E80300E3
:1045F00085E80300331D0ECB386805F0A9FC7B6805
:104600001B680121184605F026FD7B681B683B608E
:104610007E686D4606F110040FCC0FC50FCC0FC598
:1046200094E8030085E80300331D0ECB386805F0DD
:10463000AFFE7B68012283F8F92200231846143765
:10464000BD46F0BD90B589B004AF7860084611460C
:104650001A460346FB700B46BB7013467B707B68A3
:1046600093F8F832012B01D1022376E07B68012216
:1046700083F8F822FB787A682C2101FB03F31344BA
:104680003D3300221A70FB787A682C2101FB03F37A
:10469000134438337A781A70FB787A682C2101FB3E
:1046A00003F3134440333A8D1A80FB787A682C2147
:1046B00001FB03F313443933FA781A70FB787A68F4
:1046C0002C2101FB03F313443F3397F824201A7085
:1046D000FB78BA7802F07F02D0B27A682C2101FB15
:1046E00003F313443A3302461A7097F90230002B51
:1046F00009DAFB787A682C2101FB03F313443B337E
:1047000001221A7008E0FB787A682C2101FB03F380
:1047100013443B3300221A70FB787A682C2101FB8A
:1047200003F313443C3397F820201A707B68186811
:104730007C78BA78F9783B8D029397F8243001930E
:1047400097F820300093234605F0A8FF0346FB733B
:104750007B68002283F8F822FB7B18461437BD469D
:1047600090BD80B584B000AF78600B46FB7000232D
:10477000FB737B6893F8F832012B01D102230FE021
:104780007B68012283F8F8227B681B68FA7811465F
:10479000184606F0F8F97B68002283F8F822FB7BC4
:1047A00018461037BD4680BD80B582B000AF786036
:1047B000084611461A460346FB700B46BB7013466B
:1047C0007B70FB787A682C2101FB03F313443B33A5
:1047D000BA781A70FB787A682C2101FB03F3134432
:1047E0003F337A781A703B7C002B12D1FB787A68C1
:1047F0002C2101FB03F31344423303221A70FB788C
:104800007A682C2101FB03F313443D333A7F1A707D
:1048100008E0FB787A682C2101FB03F31344423350
:1048200002221A707B78032B00F2C68001A252F894
:1048300023F000BF45480208A5490208A94802081C
:10484000274902083B7C012B40F0B880BB78002B45
:1048500040F0B4803B8B002B08D1FB787A682C2188
:1048600001FB03F31344553301221A70FB787A6875
:104870002C2101FB03F3134455331B78002B09D182
:10488000FB787A682C2101FB03F3134442330022A6
:104890001A7093E0FB787A682C2101FB03F3134430
:1048A000423302221A7089E0BB78002B1DD1FB78BD
:1048B0007A682C2101FB03F3134455331B78002B3A
:1048C00009D1FB787A682C2101FB03F313444233AE
:1048D00000221A7073E0FB787A682C2101FB03F345
:1048E0001344423302221A7069E0FB787A682C2163
:1048F00001FB03F3134454331B78002B09D1FB78DD
:104900007A682C2101FB03F31344423300221A700E
:1049100055E0FB787A682C2101FB03F31344423302
:1049200002221A704BE0BB78002B1DD1FB787A680D
:104930002C2101FB03F3134455331B78002B09D1C1
:10494000FB787A682C2101FB03F3134442330022E5
:104950001A7034E0FB787A682C2101FB03F31344CE
:10496000423302221A702AE0FB787A682C2101FB7C
:1049700003F3134454331B78002B09D1FB787A6876
:104980002C2101FB03F31344423300221A7016E07A
:10499000FB787A682C2101FB03F313444233022293
:1049A0001A700CE0FB787A682C2101FB03F31344A6
:1049B000423300221A7002E000BF00E000BFFB7823
:1049C0007A682C2101FB03F3134444337A691A609B
:1049D000FB783A8B79682C2000FB03F30B444C33B3
:1049E0001A60FB787A682C2101FB03F313446033CF
:1049F00000221A70FB787A682C2101FB03F3134420
:104A0000503300221A60FB787A682C2101FB03F3F3
:104A100013443933FA781A70FB787A682C2101FB39
:104A200003F31344613300221A707B681868FB7823
:104A30002C2202FB03F338337A68D1187B681B6998
:104A4000DBB21A4605F04CFF034618460837BD4650
:104A500080BD00BF80B586B000AF78607B681B6802
:104A60003B613B69FB607B681B68184605F04DFCA9
:104A70000346012B40F0F6807B681B68184605F062
:104A800031FC0346002B00F0EC807B681B68184665
:104A900005F028FC034603F40013B3F5001F04D10E
:104AA0007B681B684FF400125A617B681B681846CC
:104AB00005F018FC034603F48013B3F5801F04D1FE
:104AC0007B681B684FF480125A617B681B6818462C
:104AD00005F008FC034603F08063B3F1806F04D156
:104AE0007B681B684FF080625A617B681B681846C0
:104AF00005F0F8FB034603F00203022B03D17B68A9
:104B00001B6802225A617B681B68184605F0EAFBA5
:104B1000034603F00053B3F1005F1CD17B681B68B0
:104B20004FF000525A61FB6803F588631B6803F07D
:104B30000103002B0FD11021386905F0D9FA38692B
:104B400005F00AFB7B681B680121184605F0E0FCB4
:104B5000786808F0A9FA7B681B68184605F0C2FB64
:104B6000034603F08073B3F1807F02D1786801F0CF
:104B70009EF87B681B68184605F0B4FB034603F0FB
:104B80000803082B06D1786808F072FA7B681B6866
:104B900008225A617B681B68184605F0A3FB034690
:104BA00003F01003102B01D1012300E00023002BA0
:104BB00012D07B681B689A697B681B6822F0100220
:104BC0009A61786800F0A1FF7B681B689A697B682E
:104BD0001B6842F010029A617B681B68184605F05A
:104BE00081FB034603F00073B3F1007F3AD17B6889
:104BF0001B68184605F0B6FFB86000237B6125E00E
:104C00007B6903F00F03BA6822FA03F303F0010390
:104C1000002B18D07B695A01FB68134403F5A0638D
:104C20001B6803F40043B3F5004F06D17B69DBB288
:104C30001946786800F0ABF805E07B69DBB21946ED
:104C4000786800F0F9FB7B6901337B617B689B68C6
:104C50007A699A42D4D37B681B684FF000725A611C
:104C600000E000BF1837BD4680BD80B582B000AF00
:104C700078607B6893F8F832012B01D1022313E0AE
:104C80007B68012283F8F8227B681B6801211846A3
:104C900005F0A2FC7B681B68184605F0BAF97B6832
:104CA000002283F8F822002318460837BD4680BD4D
:104CB00080B582B000AF78607B6893F8F832012B42
:104CC00001D102230DE07B68012283F8F8227B6882
:104CD0001B68184606F090F87B68002283F8F822DB
:104CE000002318460837BD4680BD80B582B000AFAE
:104CF00078607B681B68184605F044FC034618463C
:104D00000837BD4680BD80B483B000AF78600B46E5
:104D1000FB70FB787A682C2101FB03F313446033AA
:104D20001B7818460C37BD465DF8047B704780B48D
:104D300083B000AF78600B46FB70FB787A682C215B
:104D400001FB03F3134450331B6818460C37BD4670
:104D50005DF8047B704780B582B000AF78607B68F7
:104D60001B68184605F088FC034618460837BD4600
:104D700080BD80B582B000AF78607B681B68184644
:104D800005F063FC034618460837BD4680BD80B574
:104D900086B000AF78600B46FB707B681B687B6158
:104DA0007B693B61FB78FB60FB685A013B691344FC
:104DB00003F5A0639B6803F00403042B1AD1FB687E
:104DC0005A013B69134403F5A0631A460423936018
:104DD0007A68FB682C2101FB03F31344613306223C
:104DE0001A707B681B68FA68D2B21146184605F043
:104DF000CAFEAFE0FB685A013B69134403F5A063A8
:104E00009B6803F48073B3F5807F1BD1FB685A0164
:104E10003B69134403F5A0631A464FF48073936013
:104E20007A68FB682C2101FB03F3134461330722EA
:104E30001A707B681B68FA68D2B21146184605F0F2
:104E4000A2FE87E0FB685A013B69134403F5A063A7
:104E50009B6803F02003202B09D1FB685A013B69B2
:104E6000134403F5A0631A462023936072E0FB68A5
:104E70005A013B69134403F5A0639B6803F00803E0
:104E8000082B1AD1FB685A013B69134403F5A06350
:104E90001A46082393607A68FB682C2101FB03F310
:104EA0001344613305221A707B681B68FA68D2B21A
:104EB0001146184605F067FE4CE0FB685A013B6955
:104EC000134403F5A0639B6803F48063B3F5806F1C
:104ED0001BD1FB685A013B69134403F5A0631A46D2
:104EE0004FF4806393607A68FB682C2101FB03F325
:104EF0001344613308221A707B681B68FA68D2B2C7
:104F00001146184605F03FFE24E0FB685A013B6954
:104F1000134403F5A0639B6803F08003802B19D131
:104F2000FB685A013B69134403F5A0631A468023CA
:104F300093607A68FB682C2101FB03F3134461330F
:104F400006221A707B681B68FA68D2B211461846AE
:104F500005F019FEFB685A013B69134403F5A06391
:104F60009B6803F40073B3F5007F12D17B681B6864
:104F7000FA68D2B21146184605F005FEFB685A01E0
:104F80003B69134403F5A0631A464FF40073936022
:104F90004EE2FB685A013B69134403F5A0639B682A
:104FA00003F00103012B40F0DF807B681B69002BBD
:104FB00019D07A68FB682C2101FB03F313444833B2
:104FC0001A68FB6859013B690B4403F5A0631B6930
:104FD000C3F31203D21A7968FB682C2000FB03F399
:104FE0000B4450331A607A68FB682C2101FB03F3F1
:104FF0001344613301221A707A68FB682C2101FB8B
:1050000003F313445C3300221A60FB685A013B69C6
:10501000134403F5A0631A46012393607A68FB6882
:105020002C2101FB03F313443F331B78002B09D0E1
:105030007A68FB682C2101FB03F313443F331B7890
:10504000022B11D17B681B68FA68D2B21146184650
:1050500005F099FDFB685A013B69134403F5A06311
:105060001A46102393603AE07A68FB682C2101FB12
:1050700003F313443F331B78032B09D07A68FB6892
:105080002C2101FB03F313443F331B78012B26D162
:10509000FB685A013B69134403F5A0631B68FA6877
:1050A00051013A690A4402F5A06243F000531360CB
:1050B0007A68FB682C2101FB03F31344603301225F
:1050C0001A70FB68D9B27A68FB682C2000FB03F3E6
:1050D000134460331B781A46786807F0F3FF7B6847
:1050E0001B69012B2BD17A68FB682C2101FB03F390
:1050F000134448331B687968FA682C2000FB02F2DD
:105100000A4440321288B3FBF2F303F00103002B90
:1051100000F08E817A68FB682C2101FB03F31344B5
:1051200054331B7883F00103D8B27A68FB682C21D2
:1051300001FB03F31344543302461A7078E17A6892
:10514000FB682C2101FB03F3134454331B7883F0D9
:105150000103D8B27A68FB682C2101FB03F31344E6
:10516000543302461A7063E1FB685A013B691344E9
:1051700003F5A0639B6803F00203022B40F0F68066
:105180007A68FB682C2101FB03F3134461331B781D
:10519000012B09D17A68FB682C2101FB03F313442E
:1051A000603301221A70C9E07A68FB682C2101FB88
:1051B00003F3134461331B78052B09D17A68FB682C
:1051C0002C2101FB03F31344603305221A70B5E070
:1051D0007A68FB682C2101FB03F3134461331B78CD
:1051E000062B09D07A68FB682C2101FB03F31344DA
:1051F00061331B78082B50D17A68FB682C2101FBA6
:1052000003F313445C331B685A1C7968FB682C2039
:1052100000FB03F30B445C331A607A68FB682C21B3
:1052200001FB03F313445C331B68022B12D97A6829
:10523000FB682C2101FB03F313445C3300221A604A
:105240007A68FB682C2101FB03F3134460330422CA
:105250001A7073E07A68FB682C2101FB03F3134496
:10526000603302221A70FB685A013B69134403F54C
:10527000A0631B68BB60BB6823F08043BB60BB6856
:1052800043F00043BB60FB685A013B69134403F5DC
:10529000A0631A46BB68136050E07A68FB682C2153
:1052A00001FB03F3134461331B78032B22D17A688B
:1052B000FB682C2101FB03F31344603302221A70B4
:1052C000FB685A013B69134403F5A0631B68BB608C
:1052D000BB6823F08043BB60BB6843F00043BB6006
:1052E000FB685A013B69134403F5A0631A46BB6887
:1052F000136023E07A68FB682C2101FB03F313445D
:1053000061331B78072B19D17A68FB682C2101FBCC
:1053100003F313445C331B685A1C7968FB682C2028
:1053200000FB03F30B445C331A607A68FB682C21A2
:1053300001FB03F31344603304221A70FB685A0123
:105340003B69134403F5A0631A4602239360FB688C
:10535000D9B27A68FB682C2000FB03F31344603356
:105360001B781A46786807F0ADFE61E0FB685A01C9
:105370003B69134403F5A0639B6803F01003102BF3
:1053800056D17A68FB682C2101FB03F313443F33A9
:105390001B78032B11D17A68FB682C2101FB03F3E6
:1053A00013445C3300221A607B681B68FA68D2B22F
:1053B0001146184605F0E7FB31E07A68FB682C21BE
:1053C00001FB03F313443F331B78002B09D07A68A9
:1053D000FB682C2101FB03F313443F331B78022BA2
:1053E0001DD17A68FB682C2101FB03F313445C3365
:1053F00000221A607B681B69002B10D17A68FB6859
:105400002C2101FB03F31344613303221A707B68E0
:105410001B68FA68D2B21146184605F0B4FBFB6867
:105420005A013B69134403F5A0631A4610239360A5
:1054300000BF1837BD4680BD80B588B000AF78602A
:105440000B46FB707B681B68FB61FB69BB61FB78EB
:105450007B617B695A01BB69134403F5A0639B68B8
:1054600003F00403042B1AD17B695A01BB6913446E
:1054700003F5A0631A46042393607A687B692C21A4
:1054800001FB03F31344613306221A707B681B6827
:105490007A69D2B21146184605F075FB31E37B6993
:1054A0005A01BB69134403F5A0639B6803F0200312
:1054B000202B2ED17B695A01BB69134403F5A063ED
:1054C0001A46202393607A687B692C2101FB03F341
:1054D00013443D331B78012B40F013837A687B69BA
:1054E0002C2101FB03F313443D3300221A707A6828
:1054F0007B692C2101FB03F31344603302221A70F1
:105500007B681B687A69D2B21146184605F03BFBEE
:10551000F7E27B695A01BB69134403F5A0639B68FA
:1055200003F40073B3F5007F12D17B695A01BB69A4
:10553000134403F5A0631A464FF4007393607B682D
:105540001B687A69D2B21146184605F01CFBD8E2F6
:105550007B695A01BB69134403F5A0639B6803F0A0
:105560000103012B40D17A687B692C2101FB03F3F5
:1055700013445C3300221A607B695A01BB691344EF
:1055800003F5A0639B6803F04003402B11D17A68B8
:105590007B692C2101FB03F313443D3301221A7074
:1055A0007B695A01BB69134403F5A0631A46402383
:1055B00093607B695A01BB69134403F5A0631A46E3
:1055C000012393607A687B692C2101FB03F3134468
:1055D000613301221A707B681B687A69D2B2114666
:1055E000184605F0D0FA8CE27B695A01BB69134476
:1055F00003F5A0639B6803F04003402B2CD17A682D
:105600007B692C2101FB03F31344613304221A70DC
:105610007A687B692C2101FB03F313443D3301229B
:105620001A707A687B692C2101FB03F313445C3305
:1056300000221A607B681B687A69D2B2114618464C
:1056400005F0A1FA7B695A01BB69134403F5A06315
:105650001A464023936054E27B695A01BB691344A4
:1056600003F5A0639B6803F00803082B1AD17B693C
:105670005A01BB69134403F5A0631A4608239360DB
:105680007A687B692C2101FB03F313446133052203
:105690001A707B681B687A69D2B21146184605F009
:1056A00072FA2EE27B695A01BB69134403F5A063C9
:1056B0009B6803F01003102B40D17A687B692C2182
:1056C00001FB03F313445C3300221A607A687B69A0
:1056D0002C2101FB03F31344613303221A707A680F
:1056E0007B692C2101FB03F313443D331B78002B12
:1056F00012D17A687B692C2101FB03F313443C33FC
:105700001B78002B08D17A687B692C2101FB03F3FD
:1057100013443D3301221A707B681B687A69D2B248
:105720001146184605F02FFA7B695A01BB691344EC
:1057300003F5A0631A4610239360E2E17B695A01E6
:10574000BB69134403F5A0639B6803F08003802BBF
:1057500064D17B681B69002B11D17A687B692C218D
:1057600001FB03F31344613306221A707B681B6844
:105770007A69D2B21146184605F005FA44E07A6813
:105780007B692C2101FB03F313445C331B685A1C17
:1057900079687B692C2000FB03F30B445C331A60AF
:1057A0007A687B692C2101FB03F313445C331B688B
:1057B000022B20D97A687B692C2101FB03F3134467
:1057C0005C3300221A607A687B692C2101FB03F3A9
:1057D0001344603304221A707B69D9B27A687B69FA
:1057E0002C2000FB03F3134460331B781A467868BF
:1057F00007F068FC08E07A687B692C2101FB03F361
:105800001344603302221A707B695A01BB69134446
:1058100003F5A0631A468023936072E17B695A0105
:10582000BB69134403F5A0639B6803F48063B3F57D
:10583000806F1BD17A687B692C2101FB03F3134431
:10584000613308221A707B681B687A69D2B21146EC
:10585000184605F098F97B695A01BB69134403F5B2
:10586000A0631A464FF4806393604AE17B695A0152
:10587000BB69134403F5A0639B6803F00203022B8A
:1058800040F03F817A687B692C2101FB03F31344CC
:1058900061331B78012B7DD17A687B692C2101FB58
:1058A00003F31344603301221A707A687B692C2158
:1058B00001FB03F313443F331B78022B0AD07A68B1
:1058C0007B692C2101FB03F313443F331B78032B2B
:1058D00040F000817B681B69002B13D17A687B69DB
:1058E0002C2101FB03F3134455331B7883F0010390
:1058F000D8B27A687B692C2101FB03F3134455333A
:1059000002461A707B681B69012B40F0E3807A68BD
:105910007B692C2101FB03F313444C331B68002BE0
:1059200000F0D8807A687B692C2101FB03F31344D3
:105930004C331B6879687A692C2000FB02F20A4418
:10594000403212881344013B79687A692C2000FBAD
:1059500002F20A4440321288B3FBF2F3FB60FB68A8
:1059600003F00103002B00F0B5807A687B692C21DD
:1059700001FB03F3134455331B7883F00103D8B2C2
:105980007A687B692C2101FB03F3134455330246EB
:105990001A709FE07A687B692C2101FB03F31344A2
:1059A00061331B78032B09D17A687B692C2101FBB9
:1059B00003F31344603302221A708BE07A687B6928
:1059C0002C2101FB03F3134461331B78042B09D111
:1059D0007A687B692C2101FB03F3134460330222B4
:1059E0001A7077E07A687B692C2101FB03F313447A
:1059F00061331B78052B09D17A687B692C2101FB67
:105A000003F31344603305221A7063E07A687B69FC
:105A10002C2101FB03F3134461331B78062B09D0BF
:105A20007A687B692C2101FB03F3134461331B78F3
:105A3000082B4FD17A687B692C2101FB03F31344B7
:105A40005C331B685A1C79687B692C2000FB03F3CC
:105A50000B445C331A607A687B692C2101FB03F3E9
:105A600013445C331B68022B12D97A687B692C21A2
:105A700001FB03F313445C3300221A607A687B69EC
:105A80002C2101FB03F31344603304221A7021E03C
:105A90007A687B692C2101FB03F3134460330222F3
:105AA0001A707B695A01BB69134403F5A0631B6834
:105AB0003B613B6923F080433B613B6943F000431A
:105AC0003B617B695A01BB69134403F5A0631A4625
:105AD0003B6913607B695A01BB69134403F5A063FA
